{
  "abi": [
    {
      "inputs": [
        {
          "internalType": "address",
          "name": "addr",
          "type": "address"
        }
      ],
      "name": "callMe",
      "outputs": [
        {
          "internalType": "bool",
          "name": "",
          "type": "bool"
        }
      ],
      "stateMutability": "view",
      "type": "function"
    },
    {
      "inputs": [
        {
          "internalType": "uint256",
          "name": "n",
          "type": "uint256"
        }
      ],
      "name": "collatzIteration",
      "outputs": [
        {
          "internalType": "uint256",
          "name": "",
          "type": "uint256"
        }
      ],
      "stateMutability": "pure",
      "type": "function"
    }
  ],
  "bytecode": "608060405234801561001057600080fd5b50610371806100206000396000f3fe608060405234801561001057600080fd5b50600436106100365760003560e01c8063b27b88041461003b578063ee92422314610063575b600080fd5b61004e610049366004610242565b610084565b60405190151581526020015b60405180910390f35b610076610071366004610272565b610207565b60405190815260200161005a565b6000813b8015801590610098575060208111155b6100da5760405162461bcd60e51b815260206004820152600e60248201526d62616420636f64652073697a652160901b60448201526064015b60405180910390fd5b60008060015b60c88110156101fb5780925060005b60058110156101155761010184610207565b93508061010d816102a1565b9150506100ef565b5080915060005b60058110156101a65760405163ee92422360e01b8152600481018490526001600160a01b0388169063ee924223906064906024016020604051808303818786fa15801561016d573d6000803e3d6000fd5b50505050506040513d601f19601f8201168201806040525081019061019291906102ba565b92508061019e816102a1565b91505061011c565b508183146101e95760405162461bcd60e51b815260206004820152601060248201526f726573756c74206d69736d617463682160801b60448201526064016100d1565b806101f3816102a1565b9150506100e0565b50600195945050505050565b60006102146002836102e9565b60000361022c576102266002836102fd565b92915050565b610237826003610311565b610226906001610328565b60006020828403121561025457600080fd5b81356001600160a01b038116811461026b57600080fd5b9392505050565b60006020828403121561028457600080fd5b5035919050565b634e487b7160e01b600052601160045260246000fd5b6000600182016102b3576102b361028b565b5060010190565b6000602082840312156102cc57600080fd5b5051919050565b634e487b7160e01b600052601260045260246000fd5b6000826102f8576102f86102d3565b500690565b60008261030c5761030c6102d3565b500490565b80820281158282048414176102265761022661028b565b808201808211156102265761022661028b56fea264697066735822122064906e476cedce4e3770f3c5a66c1cb5e37c9831a161319eb6cb713954c727e064736f6c63430008110033",
  "bytecodeSha1": "9c08043f46797e36c6fa7ecd0f0ab8cac8185fda",
  "compiler": {
    "evm_version": "istanbul",
    "optimizer": {
      "enabled": true,
      "runs": 200
    },
    "version": "0.8.17+commit.8df45f5f"
  },
  "contractName": "CollatzPuzzle",
  "language": "Solidity",
  "natspec": {
    "kind": "dev",
    "methods": {},
    "version": 1
  },
  "opcodes": "PUSH1 0x80 PUSH1 0x40 MSTORE CALLVALUE DUP1 ISZERO PUSH2 0x10 JUMPI PUSH1 0x0 DUP1 REVERT JUMPDEST POP PUSH1 0x4 CALLDATASIZE LT PUSH2 0x36 JUMPI PUSH1 0x0 CALLDATALOAD PUSH1 0xE0 SHR DUP1 PUSH4 0xB27B8804 EQ PUSH2 0x3B JUMPI DUP1 PUSH4 0xEE924223 EQ PUSH2 0x63 JUMPI JUMPDEST PUSH1 0x0 DUP1 REVERT JUMPDEST PUSH2 0x4E PUSH2 0x49 CALLDATASIZE PUSH1 0x4 PUSH2 0x242 JUMP JUMPDEST PUSH2 0x84 JUMP JUMPDEST PUSH1 0x40 MLOAD SWAP1 ISZERO ISZERO DUP2 MSTORE PUSH1 0x20 ADD JUMPDEST PUSH1 0x40 MLOAD DUP1 SWAP2 SUB SWAP1 RETURN JUMPDEST PUSH2 0x76 PUSH2 0x71 CALLDATASIZE PUSH1 0x4 PUSH2 0x272 JUMP JUMPDEST PUSH2 0x207 JUMP JUMPDEST PUSH1 0x40 MLOAD SWAP1 DUP2 MSTORE PUSH1 0x20 ADD PUSH2 0x5A JUMP JUMPDEST PUSH1 0x0 DUP2 EXTCODESIZE DUP1 ISZERO DUP1 ISZERO SWAP1 PUSH2 0x98 JUMPI POP PUSH1 0x20 DUP2 GT ISZERO JUMPDEST PUSH2 0xDA JUMPI PUSH1 0x40 MLOAD PUSH3 0x461BCD PUSH1 0xE5 SHL DUP2 MSTORE PUSH1 0x20 PUSH1 0x4 DUP3 ADD MSTORE PUSH1 0xE PUSH1 0x24 DUP3 ADD MSTORE PUSH14 0x62616420636F64652073697A6521 PUSH1 0x90 SHL PUSH1 0x44 DUP3 ADD MSTORE PUSH1 0x64 ADD JUMPDEST PUSH1 0x40 MLOAD DUP1 SWAP2 SUB SWAP1 REVERT JUMPDEST PUSH1 0x0 DUP1 PUSH1 0x1 JUMPDEST PUSH1 0xC8 DUP2 LT ISZERO PUSH2 0x1FB JUMPI DUP1 SWAP3 POP PUSH1 0x0 JUMPDEST PUSH1 0x5 DUP2 LT ISZERO PUSH2 0x115 JUMPI PUSH2 0x101 DUP5 PUSH2 0x207 JUMP JUMPDEST SWAP4 POP DUP1 PUSH2 0x10D DUP2 PUSH2 0x2A1 JUMP JUMPDEST SWAP2 POP POP PUSH2 0xEF JUMP JUMPDEST POP DUP1 SWAP2 POP PUSH1 0x0 JUMPDEST PUSH1 0x5 DUP2 LT ISZERO PUSH2 0x1A6 JUMPI PUSH1 0x40 MLOAD PUSH4 0xEE924223 PUSH1 0xE0 SHL DUP2 MSTORE PUSH1 0x4 DUP2 ADD DUP5 SWAP1 MSTORE PUSH1 0x1 PUSH1 0x1 PUSH1 0xA0 SHL SUB DUP9 AND SWAP1 PUSH4 0xEE924223 SWAP1 PUSH1 0x64 SWAP1 PUSH1 0x24 ADD PUSH1 0x20 PUSH1 0x40 MLOAD DUP1 DUP4 SUB DUP2 DUP8 DUP7 STATICCALL ISZERO DUP1 ISZERO PUSH2 0x16D JUMPI RETURNDATASIZE PUSH1 0x0 DUP1 RETURNDATACOPY RETURNDATASIZE PUSH1 0x0 REVERT JUMPDEST POP POP POP POP POP PUSH1 0x40 MLOAD RETURNDATASIZE PUSH1 0x1F NOT PUSH1 0x1F DUP3 ADD AND DUP3 ADD DUP1 PUSH1 0x40 MSTORE POP DUP2 ADD SWAP1 PUSH2 0x192 SWAP2 SWAP1 PUSH2 0x2BA JUMP JUMPDEST SWAP3 POP DUP1 PUSH2 0x19E DUP2 PUSH2 0x2A1 JUMP JUMPDEST SWAP2 POP POP PUSH2 0x11C JUMP JUMPDEST POP DUP2 DUP4 EQ PUSH2 0x1E9 JUMPI PUSH1 0x40 MLOAD PUSH3 0x461BCD PUSH1 0xE5 SHL DUP2 MSTORE PUSH1 0x20 PUSH1 0x4 DUP3 ADD MSTORE PUSH1 0x10 PUSH1 0x24 DUP3 ADD MSTORE PUSH16 0x726573756C74206D69736D6174636821 PUSH1 0x80 SHL PUSH1 0x44 DUP3 ADD MSTORE PUSH1 0x64 ADD PUSH2 0xD1 JUMP JUMPDEST DUP1 PUSH2 0x1F3 DUP2 PUSH2 0x2A1 JUMP JUMPDEST SWAP2 POP POP PUSH2 0xE0 JUMP JUMPDEST POP PUSH1 0x1 SWAP6 SWAP5 POP POP POP POP POP JUMP JUMPDEST PUSH1 0x0 PUSH2 0x214 PUSH1 0x2 DUP4 PUSH2 0x2E9 JUMP JUMPDEST PUSH1 0x0 SUB PUSH2 0x22C JUMPI PUSH2 0x226 PUSH1 0x2 DUP4 PUSH2 0x2FD JUMP JUMPDEST SWAP3 SWAP2 POP POP JUMP JUMPDEST PUSH2 0x237 DUP3 PUSH1 0x3 PUSH2 0x311 JUMP JUMPDEST PUSH2 0x226 SWAP1 PUSH1 0x1 PUSH2 0x328 JUMP JUMPDEST PUSH1 0x0 PUSH1 0x20 DUP3 DUP5 SUB SLT ISZERO PUSH2 0x254 JUMPI PUSH1 0x0 DUP1 REVERT JUMPDEST DUP2 CALLDATALOAD PUSH1 0x1 PUSH1 0x1 PUSH1 0xA0 SHL SUB DUP2 AND DUP2 EQ PUSH2 0x26B JUMPI PUSH1 0x0 DUP1 REVERT JUMPDEST SWAP4 SWAP3 POP POP POP JUMP JUMPDEST PUSH1 0x0 PUSH1 0x20 DUP3 DUP5 SUB SLT ISZERO PUSH2 0x284 JUMPI PUSH1 0x0 DUP1 REVERT JUMPDEST POP CALLDATALOAD SWAP2 SWAP1 POP JUMP JUMPDEST PUSH4 0x4E487B71 PUSH1 0xE0 SHL PUSH1 0x0 MSTORE PUSH1 0x11 PUSH1 0x4 MSTORE PUSH1 0x24 PUSH1 0x0 REVERT JUMPDEST PUSH1 0x0 PUSH1 0x1 DUP3 ADD PUSH2 0x2B3 JUMPI PUSH2 0x2B3 PUSH2 0x28B JUMP JUMPDEST POP PUSH1 0x1 ADD SWAP1 JUMP JUMPDEST PUSH1 0x0 PUSH1 0x20 DUP3 DUP5 SUB SLT ISZERO PUSH2 0x2CC JUMPI PUSH1 0x0 DUP1 REVERT JUMPDEST POP MLOAD SWAP2 SWAP1 POP JUMP JUMPDEST PUSH4 0x4E487B71 PUSH1 0xE0 SHL PUSH1 0x0 MSTORE PUSH1 0x12 PUSH1 0x4 MSTORE PUSH1 0x24 PUSH1 0x0 REVERT JUMPDEST PUSH1 0x0 DUP3 PUSH2 0x2F8 JUMPI PUSH2 0x2F8 PUSH2 0x2D3 JUMP JUMPDEST POP MOD SWAP1 JUMP JUMPDEST PUSH1 0x0 DUP3 PUSH2 0x30C JUMPI PUSH2 0x30C PUSH2 0x2D3 JUMP JUMPDEST POP DIV SWAP1 JUMP JUMPDEST DUP1 DUP3 MUL DUP2 ISZERO DUP3 DUP3 DIV DUP5 EQ OR PUSH2 0x226 JUMPI PUSH2 0x226 PUSH2 0x28B JUMP JUMPDEST DUP1 DUP3 ADD DUP1 DUP3 GT ISZERO PUSH2 0x226 JUMPI PUSH2 0x226 PUSH2 0x28B JUMP INVALID LOG2 PUSH5 0x6970667358 0x22 SLT KECCAK256 PUSH5 0x906E476CED 0xCE 0x4E CALLDATACOPY PUSH17 0xF3C5A66C1CB5E37C9831A161319EB6CB71 CODECOPY SLOAD 0xC7 0x27 0xE0 PUSH5 0x736F6C6343 STOP ADDMOD GT STOP CALLER ",
  "sha1": "41e26724a3d382329c6242c3ec1f371426050779",
  "source": "// SPDX-License-Identifier: MIT\npragma solidity ^0.8.17;\n\ninterface ICollatz {\n  function collatzIteration(uint256 n) external pure returns (uint256);\n}\n\ncontract CollatzPuzzle is ICollatz {\n  function collatzIteration(uint256 n) public pure override returns (uint256) {\n    if (n % 2 == 0) {\n      return n / 2;\n    } else {\n      return 3 * n + 1;\n    }\n  }\n\n  function callMe(address addr) external view returns (bool) {\n    // check code size\n    uint256 size;\n    assembly {\n      size := extcodesize(addr)\n    }\n    require(size > 0 && size <= 32, \"bad code size!\");\n\n    // check results to be matching\n    uint p;\n    uint q;\n    for (uint256 n = 1; n < 200; n++) {\n      // local result\n      p = n;\n      for (uint256 i = 0; i < 5; i++) {\n        p = collatzIteration(p);\n      }\n      // your result\n      q = n;\n      for (uint256 i = 0; i < 5; i++) {\n        q = ICollatz(addr).collatzIteration{gas: 100}(q);\n      }\n      require(p == q, \"result mismatch!\");\n    }\n\n    return true;\n  }\n}",
  "sourcePath": "contracts/CollatzPuzzle.sol",
  "type": "contract"
}